:100000000C9474000C949C000C949C000C949C0028
:100010000C949C000C949C000C949C000C949C00F0
:100020000C949C000C949C000C949C000C94D502A5
:100030000C949C000C949C000C949C000C949C00D0
:100040000C948B020C949C000C949C000C949C00CF
:100050000C949C000C949C000C949C000C949C00B0
:100060000C949C000C949C00084AD73B3BCE016E3C
:1000700084BCBFFDC12F3D6C74319ABD56833DDAFF
:100080003D00C77F11BED9E4BB4C3E916BAAAABE0E
:10009000000000803F000000000800020100000393
:1000A0000407000000000000000000000000250020
:1000B00028002B0000000000240027002A00040470
:1000C0000404040404040202020202020303030300
:1000D00003030102040810204080010204081020DC
:1000E000010204081020AE0611241FBECFEFD8E095
:1000F000DEBFCDBF11E0A0E0B1E0E6E8F6E102C06E
:1001000005900D92A430B107D9F721E0A4E0B1E049
:1001100001C01D92A934B207E1F710E0C4E7D0E0B6
:1001200004C02197FE010E943B0BC337D107C9F7DA
:100130000E9491030C94410B0C94000090E0FC0190
:10014000EE52FF4F249182549F4FFC0184918823EB
:1001500099F090E0880F991FFC01EC54FF4FA59196
:10016000B491FC01E655FF4F859194918FB7F894B7
:10017000EC91E22BEC938FBF089590E0FC01EA56DE
:10018000FF4F2491FC01EE52FF4F3491FC01E254E9
:10019000FF4FE491EE23C9F0222339F0233001F11F
:1001A000A8F4213019F1223029F1F0E0EE0FFF1F01
:1001B000E655FF4FA591B4918FB7F894EC9161117A
:1001C00026C030953E233C938FBF08952730A9F079
:1001D0002830C9F0243049F7809180008F7D03C01A
:1001E000809180008F7780938000DFCF84B58F77F8
:1001F00084BDDBCF84B58F7DFBCF8091B0008F773E
:100200008093B000D2CF8091B0008F7DF9CF3E2B8C
:10021000DACF3FB7F89480910F0190911001A0912F
:100220001101B091120126B5A89B05C02F3F19F00E
:100230000196A11DB11D3FBFBA2FA92F982F882766
:10024000BC01CD01620F711D811D911D42E0660F41
:10025000771F881F991F4A95D1F708958F929F9213
:10026000AF92BF92CF92DF92EF92FF926B017C012F
:100270000E9409014B015C01C114D104E104F104A5
:10028000B9F00E940901681979098A099B09683E39
:1002900073408105910580F321E0C21AD108E1087D
:1002A000F10888EE880E83E0981EA11CB11CE4CFF3
:1002B000FF90EF90DF90CF90BF90AF909F908F9086
:1002C0000895CF92DF92EF92FF92CF93DF93EC01EC
:1002D000603282E07807CCF5653B710514F064EB81
:1002E00070E0898128E830E0281B310987FD3395CB
:1002F000220F331F220F331F6901330FEE08FF084F
:100300008A8128E532E0281B310987FD3395220FC9
:10031000331F220F331F032E000C440B550B2C19D7
:100320003D094E095F09DB0177FF02C0B0E0A0E0A4
:100330000E94B10724EB30E040E050E00E948707C4
:10034000C20ED31EE41EF51EB601E881EC3070F536
:10035000298188E890E0821B910927FD9395880FF9
:10036000991F880F991F681779077CF02A8188E503
:1003700092E0821B910927FD9395880F991F880FA2
:10038000991F681779070CF4CB010297880F991F02
:100390004FB7F8942E2F30E0F901EE0FFF1FE20F58
:1003A000F31FED5EFE4F928381834FBFDF91CF91AC
:1003B000FF90EF90DF90CF900895892B79F4109201
:1003C000800082E08093810010928500109284006A
:1003D000B19A80916F00826080936F0008954F9270
:1003E0005F926F927F928F929F92AF92BF92CF92C5
:1003F000DF92EF92FF926B017C01CA01B9012AE9F9
:1004000039E949E95EE30E94EB074B015C01A70172
:100410009601C701B6010E94710A2B013C01A5019A
:100420009401C501B4010E94710A9B01AC01C30192
:10043000B2010E94EB070E94E40A9B01AC010E94FA
:10044000EB070E9457089B01AC0168ED7FE089EC47
:100450009FE30E94EA0720E030E044EB52E40E9470
:10046000710A28ED3FE049EC5FE30E948B080E948F
:10047000FD082B01072E000C880B990B0E943509F3
:100480006093450170934601809347019093480122
:10049000A5019401C701B6010E948B080E9457086C
:1004A00020E030E044EB52E40E94710A28ED3FE086
:1004B00049EC5FE30E948B0820E030E044EB52E41B
:1004C0000E94EB070E9470090E94FD086B01072E35
:1004D000000C880B990B0E943509609304017093FE
:1004E00005018093060190930701B20182E491E037
:1004F0000E946101B60187E391E0FF90EF90DF90E9
:10050000CF90BF90AF909F908F907F906F905F90B3
:100510004F900C9461011F920F920FB60F9211240D
:100520002F933F938F939F93AF93BF9380910B0132
:1005300090910C01A0910D01B0910E0130910A0132
:1005400023E0230F2D3758F50196A11DB11D2093EF
:100550000A0180930B0190930C01A0930D01B093BD
:100560000E0180910F0190911001A0911101B091A5
:1005700012010196A11DB11D80930F0190931001EE
:10058000A0931101B0931201BF91AF919F918F91F0
:100590003F912F910F900FBE0F901F90189526E856
:1005A000230F0296A11DB11DD2CF1F920F920FB63D
:1005B0000F9211242F933F934F935F936F937F93E9
:1005C0008F939F93AF93BF93CF93DF93EF93FF935B
:1005D00080910901C0910801D0E087FF24C01092EA
:1005E000850010928400809109018F5F809309013A
:1005F00080910901082E000C990B8C179D0724F49B
:10060000809109018C30C4F1809184009091850023
:10061000049680349C4908F47AC0809184009091BB
:100620008500049676C080910901082E000C990B74
:100630008C179D07C4F6E09109018E2FEE0F990BE0
:10064000FC01EE0FFF1FE80FF91FED5EFE4F8081EA
:1006500086FFC9CFE09109018E2FEE0F990BFC01A7
:10066000EE0FFF1FE80FF91FED5EFE4F808160E087
:100670008F730E94BD00B7CF209184003091850018
:10068000E09109018E2FEE0F990BFC01EE0FFF1F79
:10069000E80FF91FED5EFE4F81819281820F931F5B
:1006A0009093890080938800E09109018E2FEE0FCE
:1006B000990BFC01EE0FFF1FE80FF91FED5EFE4FD7
:1006C000808186FF11C0E09109018E2FEE0F990BFA
:1006D000FC01EE0FFF1FE80FF91FED5EFE4F80815A
:1006E00061E08F730E94BD00FF91EF91DF91CF9188
:1006F000BF91AF919F918F917F916F915F914F913A
:100700003F912F910F900FBE0F901F90189580E48E
:100710009CE990938900809388008FEF8093090172
:10072000E3CFCF93DF93CDB7DEB76A970FB6F894D8
:10073000DEBF0FBECDBF789484B5826084BD84B522
:10074000816084BD85B5826085BD85B5816085BDCC
:1007500080916E00816080936E0010928100809184
:10076000810082608093810080918100816080930C
:100770008100809180008160809380008091B10031
:1007800084608093B1008091B00081608093B0005C
:1007900080917A00846080937A0080917A008260F0
:1007A00080937A0080917A00816080937A008091B2
:1007B0007A00806880937A001092C100809137019E
:1007C0008C3008F042C086E00E949E008091370184
:1007D000282F30E0F901EE0FFF1FE20FF31FED5E4F
:1007E000FE4F9081907C9660908310923801109219
:1007F00039012CE0622F0E942F0B90E0829FB00104
:10080000112430E020E0AB01420F531FFA01EE0F3C
:10081000FF1FE40FF51FED5EFE4F408146FD07C050
:100820002F5F3F4F2C30310571F70E94DD01E091C1
:1008300037018E2F90E0FC01EE0FFF1FE80FF91F2C
:10084000ED5EFE4F808180648083809142018C3018
:1008500008F042C089E00E949E0080914201282F4A
:1008600030E0F901EE0FFF1FE20FF31FED5EFE4FC8
:100870009081907C99609083109243011092440182
:100880002CE0622F0E942F0B90E0829FB001112478
:1008900030E020E0AB01420F531FFA01EE0FFF1FC3
:1008A000E40FF51FED5EFE4F408146FD07C02F5F50
:1008B0003F4F2C30310571F70E94DD01E09142017C
:1008C0008E2F90E0FC01EE0FFF1FE80FF91FED5E89
:1008D000FE4F8081806480838DE00E949E0061E0F5
:1008E0008DE00E94BD0000E010E00E942F0726E08E
:1008F00030E040E050E00E948707613071058105DB
:10090000910509F488C0623071058105910509F4EB
:100910007AC1C12CD12C7601672B682B692B09F089
:10092000A6C10E942F0728E532E040E050E00E9477
:1009300087076C5271408109910924E630E040E05C
:1009400050E00E948707CA01B9010E9435096093EF
:100950003E0170933F0180934001909341010E94BA
:100960002F072CE231E040E050E00E94870724E6A8
:1009700030E040E050E00E948707CA01B9010E94C0
:1009800035094B015C0180923A0190923B01A092A3
:100990003C01B0923D01C0903E01D0903F01E090FB
:1009A0004001F090410120E030E0A901C701B6010B
:1009B0000E94860887FF0AC020E030E040E250E451
:1009C000C501B4010E94640A181684F02DEC3CECB9
:1009D0004CE45FEBC701B6010E94860887FD06C0A4
:1009E000A5019401C701B6010E94EF010E942F07E3
:1009F00020E137E240E050E00E94870764527A4FDE
:100A00008F4F9F4F0E942E010115110509F46DCFE4
:100A10000E94000068CF0E942F0728E532E040E0E6
:100A200050E00E9487076C5271408109910924E6C9
:100A300030E040E050E00E948707CA01B9010E94FF
:100A400035092B013C010E942F072CE231E040E0E8
:100A500050E00E94870724E630E040E050E00E942A
:100A60008707CA01B9010E9435094B015C010E9448
:100A70002F076B017C0120E030E0A901C301B20126
:100A80000E94860887FF0BC020E030E040E250E47F
:100A9000C501B4010E94640A18160CF4A7CF2DEC0E
:100AA0003CEC4CE45FEBC301B2010E94860887FD79
:100AB0009DCFC701B60128EE33E040E050E00E9430
:100AC0008707665F7F4F8F4F9F4F0E94350969836D
:100AD0007A838B839C83A5019401C301B2010E9498
:100AE000EF0180913E0190913F01A0914001B091B2
:100AF00041018D839E83AF83B8879C01AD01C30103
:100B0000B2010E94EA0729813A814B815C810E94EF
:100B10008B086D877E878F87988B80913A019091A3
:100B20003B01A0913C01B0913D0189879A87AB8739
:100B3000BC879C01AD01C501B4010E94EA0729816F
:100B40003A814B815C810E948B08698B7A8B8B8BFD
:100B50009C8B1A8E198EA98DBA8DBD01BB0F880B87
:100B6000990B0E9435096B017C01AC019B016981E5
:100B70007A818B819C810E94640A18169CF5A701DA
:100B8000960169897A898B899C890E94710A2985D5
:100B90003A854B855C850E94EB076D8B7E8B8F8B36
:100BA000988FA70196016D857E858F8598890E9413
:100BB000710A2D813E814F8158850E94EB072D8956
:100BC0003E894F89588D0E94EF016AE070E080E015
:100BD00090E00E942E01298D3A8D2F5F3F4F3A8F72
:100BE000298FB9CF40923E0150923F01609240015F
:100BF0007092410180923A0190923B01A0923C0197
:100C0000B0923D01F3CEC12CD12C76019AE0892E11
:100C1000912CA12CB12C0E942F07260137013FEF08
:100C2000C31AD30AE30AF30AA50194010E948707B5
:100C30006F5F7F4F8F4F9F4F641575058605970532
:100C40000CF4D4CE60E08DE00E94BD0068EC70E052
:100C500080E090E00E942E0161E08DE00E94BD00E6
:100C600068EC70E080E090E00E942E01D4CF0E94FA
:100C70002F072AE030E040E050E00E9487076F5FD6
:100C80007F4F8F4F9F4F6C157D058E059F050CF490
:100C9000ADCE8BE090E09A838983812C912C540116
:100CA0004090450150904601609047017090480186
:100CB000A5019401C301B2010E94EB070E94FD0847
:100CC00082E491E00E9461016AE070E080E090E0DF
:100CD0000E942E0120E030E040E85FE3C501B4014E
:100CE0000E94EB074B015C01A981BA811197BA837D
:100CF000A983AB2BA9F62BE030E03A832983812C22
:100D0000912C80E2A82E81E4B82EA3019201C501A6
:100D1000B4010E94EB070E94FD0882E491E00E946A
:100D200061016AE070E080E090E00E942E0120E026
:100D300030E040E85FE3C501B4010E94EA074B01DF
:100D40005C0189819A8101979A838983892BE9F6CD
:100D50009FEFC91AD90AE90AF90A89CF80910801D7
:100D60008C3048F591E0980F9093080180933701FB
:100D700090E0FC01EE0FFF1FE80FF91FED5EFE4F44
:100D800088EB9BE092838183809108018C30B8F4DA
:100D900091E0980F909308018093420190E0FC014C
:100DA000EE0FFF1FE80FF91FED5EFE4F88EB9BE093
:100DB0009283818308958FEF80933701E5CF8FEF82
:100DC0008093420108958F929F92AF92BF92CF92EB
:100DD000DF92EF92FF92CF93DF93EC0168817981EC
:100DE0008A819B81611571058105910521F464E279
:100DF00079ED8BE597E02DE133EF41E050E00E9483
:100E0000870749015A019B01AC01A7EAB1E40E949E
:100E1000A6076B017C01ACEEB4EFA50194010E9422
:100E2000B407C60ED71EE81EF91EF7FE06C081E005
:100E3000C81AD108E10880E8F80AC882D982EA8293
:100E4000FB82C701B6019F77DF91CF91FF90EF90B2
:100E5000DF90CF90BF90AF909F908F9008958F922A
:100E60009F92AF92BF92CF92DF92EF92FF926091EA
:100E700000017091010180910201909103016115BF
:100E800071058105910521F464E279ED8BE597E028
:100E90002DE133EF41E050E00E94870749015A01FC
:100EA0009B01AC01A7EAB1E40E94A6076B017C019B
:100EB000ACEEB4EFA50194010E94B407C60ED71E94
:100EC000E81EF91EF7FE06C081E0C81AD108E10845
:100ED00080E8F80AC0920001D0920101E09202017C
:100EE000F0920301C701B6019F77FF90EF90DF906A
:100EF000CF90BF90AF909F908F9008956093000126
:100F00007093010180930201909303010895052ECF
:100F100097FB1EF400940E949E0757FD07D00E9485
:100F2000B90707FC03D04EF40C949E0750954095EA
:100F3000309521953F4F4F4F5F4F08959095809585
:100F4000709561957F4F8F4F9F4F08950E94DB07EB
:100F5000A59F900DB49F900DA49F800D911D11240D
:100F60000895B7FF0C94A6070E94A607821B930B57
:100F70000895A1E21A2EAA1BBB1BFD010DC0AA1FDA
:100F8000BB1FEE1FFF1FA217B307E407F50720F0F2
:100F9000A21BB30BE40BF50B661F771F881F991F6D
:100FA0001A9469F760957095809590959B01AC01B6
:100FB000BD01CF010895A29FB001B39FC001A39FBF
:100FC000700D811D1124911DB29F700D811D112482
:100FD000911D08955058BB27AA270E9402080C941F
:100FE000120A0E94040A38F00E940B0A20F039F419
:100FF0009F3F19F426F40C94DA090EF4E095E7FB10
:101000000C94AB09E92F0E94230A58F3BA17620720
:1010100073078407950720F079F4A6F50C945D0A10
:101020000EF4E0950B2EBA2FA02D0B01B901900103
:101030000C01CA01A0011124FF27591B99F0593F47
:1010400050F4503E68F11A16F040A22F232F342F8F
:101050004427585FF3CF469537952795A795F040DD
:101060005395C9F77EF41F16BA0B620B730B840BF2
:10107000BAF09150A1F0FF0FBB1F661F771F881FAA
:10108000C2F70EC0BA0F621F731F841F48F4879502
:1010900077956795B795F7959E3F08F0B0CF9395F4
:1010A000880F08F09927EE0F979587950895DF939D
:1010B000DD27B92FBF7740E85FE31616170648070C
:1010C0005B0718F4D92F0E94690A9F938F937F932F
:1010D0006F930E94240BE8E6F0E00E94DD090E9475
:1010E000120A2F913F914F915F910E94840ADD2354
:1010F00051F09058A2EA2AED3FE049EC5FE3D07846
:101100005D270E940208DF910C94120A0E94870951
:1011100008F481E008950E949F080C94120A0E942E
:101120000B0A58F00E94040A40F029F45F3F29F0AE
:101130000C94AB0951110C945E0A0C94DA090E94CC
:10114000230A68F39923B1F3552391F3951B550BAB
:10115000BB27AA2762177307840738F09F5F5F4F8A
:10116000220F331F441FAA1FA9F335D00E2E3AF0C9
:10117000E0E832D091505040E695001CCAF72BD0E1
:10118000FE2F29D0660F771F881FBB1F2617370732
:101190004807AB07B0E809F0BB0B802DBF01FF2764
:1011A00093585F4F3AF09E3F510578F00C94AB098D
:1011B0000C945E0A5F3FE4F3983ED4F386957795EE
:1011C0006795B795F7959F5FC9F7880F911D96951D
:1011D000879597F90895E1E0660F771F881FBB1F79
:1011E000621773078407BA0720F0621B730B840B26
:1011F000BA0BEE1F88F7E09508950E9404096894E1
:10120000B1110C945E0A08950E942B0A88F09F5732
:1012100098F0B92F9927B751B0F0E1F0660F771F1A
:10122000881F991F1AF0BA95C9F714C0B13091F010
:101230000E945D0AB1E008950C945D0A672F782F33
:101240008827B85F39F0B93FCCF3869577956795D5
:10125000B395D9F73EF490958095709561957F4F41
:101260008F4F9F4F0895E89409C097FB3EF49095E7
:101270008095709561957F4F8F4F9F4F9923A9F06F
:10128000F92F96E9BB279395F695879577956795FE
:10129000B795F111F8CFFAF4BB0F11F460FF1BC042
:1012A0006F5F7F4F8F4F9F4F16C0882311F096E9D5
:1012B00011C0772321F09EE8872F762F05C0662383
:1012C00071F096E8862F70E060E02AF09A95660F3C
:1012D000771F881FDAF7880F9695879597F90895F5
:1012E0000E94450A90F09F3748F4911116F00C9433
:1012F0005E0A60E070E080E89FEB089526F41B161C
:10130000611D711D811D0C94B1090C94CC09990FBC
:101310000008550FAA0BE0E8FEEF16161706E807BF
:10132000F907C0F012161306E407F50798F0621BE0
:10133000730B840B950B39F40A2661F0232B242BB5
:10134000252B21F408950A2609F4A140A6958FEFD4
:10135000811D811D089597F99F6780E870E060E026
:101360000895882371F4772321F09850872B762FE6
:1013700007C0662311F499270DC09051862B70E0A9
:1013800060E02AF09A95660F771F881FDAF7880FBA
:101390009695879597F908959F3F31F0915020F4E5
:1013A000879577956795B795880F911D9695879541
:1013B00097F908959FEF80EC0895DF93CF931F93E3
:1013C0000F93FF92EF92DF927B018C01689406C02D
:1013D000DA2EEF010E94840AFE01E894A59125917E
:1013E000359145915591A6F3EF010E940208FE0147
:1013F0009701A801DA9469F7DF90EF90FF900F91C1
:101400001F91CF91DF91089500240A9416161706B4
:1014100018060906089500240A94121613061406E5
:1014200005060895092E0394000C11F4882352F048
:10143000BB0F40F4BF2B11F460FF04C06F5F7F4F00
:101440008F4F9F4F089557FD9058440F551F59F0E7
:101450005F3F71F04795880F97FB991F61F09F3FA1
:1014600079F087950895121613061406551FF2CFCA
:101470004695F1DF08C0161617061806991FF1CF1A
:10148000869571056105089408950E942B0AA0F0C5
:10149000BEE7B91788F4BB279F3860F41616B11D54
:1014A000672F782F8827985FF7CF86957795679570
:1014B000B11D93959639C8F30895E894BB27662724
:1014C0007727CB0197F908950E94870908F48FEFD9
:1014D00008959B01AC0160E070E080E89FE30C940C
:1014E0008B080E94840A0C94120A0E94040A38F0A5
:1014F0000E940B0A20F0952311F00C94AB090C9478
:10150000DA0911240C945E0A0E94230A70F3959F55
:10151000C1F3950F50E0551F629FF001729FBB27EA
:10152000F00DB11D639FAA27F00DB11DAA1F649F86
:101530006627B00DA11D661F829F2227B00DA11D39
:10154000621F739FB00DA11D621F839FA00D611DBF
:10155000221F749F3327A00D611D231F849F600DE0
:10156000211D822F762F6A2F11249F5750409AF009
:10157000F1F088234AF0EE0FFF1FBB1F661F771F95
:10158000881F91505040A9F79E3F510580F00C9460
:10159000AB090C945E0A5F3FE4F3983ED4F3869562
:1015A00077956795B795F795E7959F5FC1F7FE2B00
:1015B000880F911D9695879597F9089519F416F45B
:1015C0000C94DA090C94CC090E942B0AB8F39923E5
:1015D000C9F3B6F39F57550B87FF0E94280B0024D1
:1015E000A0E640EA900180585695979528F4805CD3
:1015F000660F771F881F20F026173707480730F43B
:10160000621B730B840B202931294A2BA695179452
:101610000794202531254A2758F7660F771F881F22
:1016200020F026173707480730F4620B730B840B42
:10163000200D311D411DA09581F7B901842F9158CE
:10164000880F9695879508959B01AC010C94710ABB
:1016500091505040660F771F881FD2F70895991B4D
:1016600079E004C0991F961708F0961B881F7A9599
:10167000C9F780950895EE0FFF1F0590F491E02DB6
:061680000994F894FFCF6D
:04168600010000005F
:00000001FF
